{
  "_format": "hh-sol-artifact-1",
  "contractName": "RawMaterials",
  "sourceName": "contracts/RawMaterials.sol",
  "abi": [
    {
      "inputs": [
        {
          "internalType": "string",
          "name": "_id",
          "type": "string"
        },
        {
          "internalType": "string",
          "name": "_name",
          "type": "string"
        },
        {
          "internalType": "string",
          "name": "_description",
          "type": "string"
        },
        {
          "internalType": "string",
          "name": "_supplierId",
          "type": "string"
        },
        {
          "internalType": "string",
          "name": "_amount",
          "type": "string"
        },
        {
          "internalType": "string",
          "name": "_price",
          "type": "string"
        },
        {
          "internalType": "string",
          "name": "_unit",
          "type": "string"
        }
      ],
      "name": "addRawMaterial",
      "outputs": [],
      "stateMutability": "nonpayable",
      "type": "function"
    },
    {
      "inputs": [
        {
          "internalType": "string",
          "name": "key",
          "type": "string"
        }
      ],
      "name": "getRawMaterial",
      "outputs": [
        {
          "components": [
            {
              "internalType": "string",
              "name": "id",
              "type": "string"
            },
            {
              "internalType": "string",
              "name": "name",
              "type": "string"
            },
            {
              "internalType": "string",
              "name": "description",
              "type": "string"
            },
            {
              "internalType": "uint256",
              "name": "timeStamp",
              "type": "uint256"
            },
            {
              "internalType": "string",
              "name": "supplierId",
              "type": "string"
            },
            {
              "internalType": "string",
              "name": "amount",
              "type": "string"
            },
            {
              "internalType": "string",
              "name": "price",
              "type": "string"
            },
            {
              "internalType": "string",
              "name": "unit",
              "type": "string"
            }
          ],
          "internalType": "struct RawMaterial",
          "name": "",
          "type": "tuple"
        }
      ],
      "stateMutability": "view",
      "type": "function"
    },
    {
      "inputs": [],
      "name": "getRawMaterialsKeys",
      "outputs": [
        {
          "internalType": "string[]",
          "name": "",
          "type": "string[]"
        }
      ],
      "stateMutability": "view",
      "type": "function"
    },
    {
      "inputs": [
        {
          "internalType": "uint256",
          "name": "",
          "type": "uint256"
        }
      ],
      "name": "rawMatKeys",
      "outputs": [
        {
          "internalType": "string",
          "name": "",
          "type": "string"
        }
      ],
      "stateMutability": "view",
      "type": "function"
    },
    {
      "inputs": [
        {
          "internalType": "string",
          "name": "",
          "type": "string"
        }
      ],
      "name": "rawMaterials",
      "outputs": [
        {
          "internalType": "string",
          "name": "id",
          "type": "string"
        },
        {
          "internalType": "string",
          "name": "name",
          "type": "string"
        },
        {
          "internalType": "string",
          "name": "description",
          "type": "string"
        },
        {
          "internalType": "uint256",
          "name": "timeStamp",
          "type": "uint256"
        },
        {
          "internalType": "string",
          "name": "supplierId",
          "type": "string"
        },
        {
          "internalType": "string",
          "name": "amount",
          "type": "string"
        },
        {
          "internalType": "string",
          "name": "price",
          "type": "string"
        },
        {
          "internalType": "string",
          "name": "unit",
          "type": "string"
        }
      ],
      "stateMutability": "view",
      "type": "function"
    }
  ],
  "bytecode": "0x608060405234801561001057600080fd5b506116fc806100206000396000f3fe608060405234801561001057600080fd5b50600436106100575760003560e01c80631f1751e91461005c57806361729ff51461008c57806390412a8b146100a8578063babe2f42146100c6578063e1963b13146100fd575b600080fd5b61007660048036038101906100719190610cdb565b61012d565b6040516100839190610d98565b60405180910390f35b6100a660048036038101906100a19190610eef565b6101d9565b005b6100b061031c565b6040516100bd9190611161565b60405180910390f35b6100e060048036038101906100db9190611183565b6103f5565b6040516100f49897969594939291906111db565b60405180910390f35b61011760048036038101906101129190611183565b61080b565b6040516101249190611373565b60405180910390f35b6001818154811061013d57600080fd5b906000526020600020016000915090508054610158906113c4565b80601f0160208091040260200160405190810160405280929190818152602001828054610184906113c4565b80156101d15780601f106101a6576101008083540402835291602001916101d1565b820191906000526020600020905b8154815290600101906020018083116101b457829003601f168201915b505050505081565b60018790806001815401808255809150506001900390600052602060002001600090919091909150908161020d91906115a1565b5060006040518061010001604052808981526020018881526020018781526020014281526020018681526020018581526020018481526020018381525090508060008960405161025d91906116af565b9081526020016040518091039020600082015181600001908161028091906115a1565b50602082015181600101908161029691906115a1565b5060408201518160020190816102ac91906115a1565b506060820151816003015560808201518160040190816102cc91906115a1565b5060a08201518160050190816102e291906115a1565b5060c08201518160060190816102f891906115a1565b5060e082015181600701908161030e91906115a1565b509050505050505050505050565b60606001805480602002602001604051908101604052809291908181526020016000905b828210156103ec57838290600052602060002001805461035f906113c4565b80601f016020809104026020016040519081016040528092919081815260200182805461038b906113c4565b80156103d85780601f106103ad576101008083540402835291602001916103d8565b820191906000526020600020905b8154815290600101906020018083116103bb57829003601f168201915b505050505081526020019060010190610340565b50505050905090565b60008180516020810182018051848252602083016020850120818352809550505050505060009150905080600001805461042e906113c4565b80601f016020809104026020016040519081016040528092919081815260200182805461045a906113c4565b80156104a75780601f1061047c576101008083540402835291602001916104a7565b820191906000526020600020905b81548152906001019060200180831161048a57829003601f168201915b5050505050908060010180546104bc906113c4565b80601f01602080910402602001604051908101604052809291908181526020018280546104e8906113c4565b80156105355780601f1061050a57610100808354040283529160200191610535565b820191906000526020600020905b81548152906001019060200180831161051857829003601f168201915b50505050509080600201805461054a906113c4565b80601f0160208091040260200160405190810160405280929190818152602001828054610576906113c4565b80156105c35780601f10610598576101008083540402835291602001916105c3565b820191906000526020600020905b8154815290600101906020018083116105a657829003601f168201915b5050505050908060030154908060040180546105de906113c4565b80601f016020809104026020016040519081016040528092919081815260200182805461060a906113c4565b80156106575780601f1061062c57610100808354040283529160200191610657565b820191906000526020600020905b81548152906001019060200180831161063a57829003601f168201915b50505050509080600501805461066c906113c4565b80601f0160208091040260200160405190810160405280929190818152602001828054610698906113c4565b80156106e55780601f106106ba576101008083540402835291602001916106e5565b820191906000526020600020905b8154815290600101906020018083116106c857829003601f168201915b5050505050908060060180546106fa906113c4565b80601f0160208091040260200160405190810160405280929190818152602001828054610726906113c4565b80156107735780601f1061074857610100808354040283529160200191610773565b820191906000526020600020905b81548152906001019060200180831161075657829003601f168201915b505050505090806007018054610788906113c4565b80601f01602080910402602001604051908101604052809291908181526020018280546107b4906113c4565b80156108015780601f106107d657610100808354040283529160200191610801565b820191906000526020600020905b8154815290600101906020018083116107e457829003601f168201915b5050505050905088565b610813610c4c565b60008260405161082391906116af565b90815260200160405180910390206040518061010001604052908160008201805461084d906113c4565b80601f0160208091040260200160405190810160405280929190818152602001828054610879906113c4565b80156108c65780601f1061089b576101008083540402835291602001916108c6565b820191906000526020600020905b8154815290600101906020018083116108a957829003601f168201915b505050505081526020016001820180546108df906113c4565b80601f016020809104026020016040519081016040528092919081815260200182805461090b906113c4565b80156109585780601f1061092d57610100808354040283529160200191610958565b820191906000526020600020905b81548152906001019060200180831161093b57829003601f168201915b50505050508152602001600282018054610971906113c4565b80601f016020809104026020016040519081016040528092919081815260200182805461099d906113c4565b80156109ea5780601f106109bf576101008083540402835291602001916109ea565b820191906000526020600020905b8154815290600101906020018083116109cd57829003601f168201915b5050505050815260200160038201548152602001600482018054610a0d906113c4565b80601f0160208091040260200160405190810160405280929190818152602001828054610a39906113c4565b8015610a865780601f10610a5b57610100808354040283529160200191610a86565b820191906000526020600020905b815481529060010190602001808311610a6957829003601f168201915b50505050508152602001600582018054610a9f906113c4565b80601f0160208091040260200160405190810160405280929190818152602001828054610acb906113c4565b8015610b185780601f10610aed57610100808354040283529160200191610b18565b820191906000526020600020905b815481529060010190602001808311610afb57829003601f168201915b50505050508152602001600682018054610b31906113c4565b80601f0160208091040260200160405190810160405280929190818152602001828054610b5d906113c4565b8015610baa5780601f10610b7f57610100808354040283529160200191610baa565b820191906000526020600020905b815481529060010190602001808311610b8d57829003601f168201915b50505050508152602001600782018054610bc3906113c4565b80601f0160208091040260200160405190810160405280929190818152602001828054610bef906113c4565b8015610c3c5780601f10610c1157610100808354040283529160200191610c3c565b820191906000526020600020905b815481529060010190602001808311610c1f57829003601f168201915b5050505050815250509050919050565b60405180610100016040528060608152602001606081526020016060815260200160008152602001606081526020016060815260200160608152602001606081525090565b6000604051905090565b600080fd5b600080fd5b6000819050919050565b610cb881610ca5565b8114610cc357600080fd5b50565b600081359050610cd581610caf565b92915050565b600060208284031215610cf157610cf0610c9b565b5b6000610cff84828501610cc6565b91505092915050565b600081519050919050565b600082825260208201905092915050565b60005b83811015610d42578082015181840152602081019050610d27565b60008484015250505050565b6000601f19601f8301169050919050565b6000610d6a82610d08565b610d748185610d13565b9350610d84818560208601610d24565b610d8d81610d4e565b840191505092915050565b60006020820190508181036000830152610db28184610d5f565b905092915050565b600080fd5b600080fd5b7f4e487b7100000000000000000000000000000000000000000000000000000000600052604160045260246000fd5b610dfc82610d4e565b810181811067ffffffffffffffff82111715610e1b57610e1a610dc4565b5b80604052505050565b6000610e2e610c91565b9050610e3a8282610df3565b919050565b600067ffffffffffffffff821115610e5a57610e59610dc4565b5b610e6382610d4e565b9050602081019050919050565b82818337600083830152505050565b6000610e92610e8d84610e3f565b610e24565b905082815260208101848484011115610eae57610ead610dbf565b5b610eb9848285610e70565b509392505050565b600082601f830112610ed657610ed5610dba565b5b8135610ee6848260208601610e7f565b91505092915050565b600080600080600080600060e0888a031215610f0e57610f0d610c9b565b5b600088013567ffffffffffffffff811115610f2c57610f2b610ca0565b5b610f388a828b01610ec1565b975050602088013567ffffffffffffffff811115610f5957610f58610ca0565b5b610f658a828b01610ec1565b965050604088013567ffffffffffffffff811115610f8657610f85610ca0565b5b610f928a828b01610ec1565b955050606088013567ffffffffffffffff811115610fb357610fb2610ca0565b5b610fbf8a828b01610ec1565b945050608088013567ffffffffffffffff811115610fe057610fdf610ca0565b5b610fec8a828b01610ec1565b93505060a088013567ffffffffffffffff81111561100d5761100c610ca0565b5b6110198a828b01610ec1565b92505060c088013567ffffffffffffffff81111561103a57611039610ca0565b5b6110468a828b01610ec1565b91505092959891949750929550565b600081519050919050565b600082825260208201905092915050565b6000819050602082019050919050565b600082825260208201905092915050565b600061109d82610d08565b6110a78185611081565b93506110b7818560208601610d24565b6110c081610d4e565b840191505092915050565b60006110d78383611092565b905092915050565b6000602082019050919050565b60006110f782611055565b6111018185611060565b93508360208202850161111385611071565b8060005b8581101561114f578484038952815161113085826110cb565b945061113b836110df565b925060208a01995050600181019050611117565b50829750879550505050505092915050565b6000602082019050818103600083015261117b81846110ec565b905092915050565b60006020828403121561119957611198610c9b565b5b600082013567ffffffffffffffff8111156111b7576111b6610ca0565b5b6111c384828501610ec1565b91505092915050565b6111d581610ca5565b82525050565b60006101008201905081810360008301526111f6818b610d5f565b9050818103602083015261120a818a610d5f565b9050818103604083015261121e8189610d5f565b905061122d60608301886111cc565b818103608083015261123f8187610d5f565b905081810360a08301526112538186610d5f565b905081810360c08301526112678185610d5f565b905081810360e083015261127b8184610d5f565b90509998505050505050505050565b61129381610ca5565b82525050565b60006101008301600083015184820360008601526112b78282611092565b915050602083015184820360208601526112d18282611092565b915050604083015184820360408601526112eb8282611092565b9150506060830151611300606086018261128a565b50608083015184820360808601526113188282611092565b91505060a083015184820360a08601526113328282611092565b91505060c083015184820360c086015261134c8282611092565b91505060e083015184820360e08601526113668282611092565b9150508091505092915050565b6000602082019050818103600083015261138d8184611299565b905092915050565b7f4e487b7100000000000000000000000000000000000000000000000000000000600052602260045260246000fd5b600060028204905060018216806113dc57607f821691505b6020821081036113ef576113ee611395565b5b50919050565b60008190508160005260206000209050919050565b60006020601f8301049050919050565b600082821b905092915050565b6000600883026114577fffffffffffffffffffffffffffffffffffffffffffffffffffffffffffffffff8261141a565b611461868361141a565b95508019841693508086168417925050509392505050565b6000819050919050565b600061149e61149961149484610ca5565b611479565b610ca5565b9050919050565b6000819050919050565b6114b883611483565b6114cc6114c4826114a5565b848454611427565b825550505050565b600090565b6114e16114d4565b6114ec8184846114af565b505050565b5b81811015611510576115056000826114d9565b6001810190506114f2565b5050565b601f82111561155557611526816113f5565b61152f8461140a565b8101602085101561153e578190505b61155261154a8561140a565b8301826114f1565b50505b505050565b600082821c905092915050565b60006115786000198460080261155a565b1980831691505092915050565b60006115918383611567565b9150826002028217905092915050565b6115aa82610d08565b67ffffffffffffffff8111156115c3576115c2610dc4565b5b6115cd82546113c4565b6115d8828285611514565b600060209050601f83116001811461160b57600084156115f9578287015190505b6116038582611585565b86555061166b565b601f198416611619866113f5565b60005b828110156116415784890151825560018201915060208501945060208101905061161c565b8683101561165e578489015161165a601f891682611567565b8355505b6001600288020188555050505b505050505050565b600081905092915050565b600061168982610d08565b6116938185611673565b93506116a3818560208601610d24565b80840191505092915050565b60006116bb828461167e565b91508190509291505056fea264697066735822122021695100fa31dbb1499d74622b96fd5f45a20cb632e6228869c1bebdb1c3a95764736f6c63430008120033",
  "linkReferences": {},
  "deployedLinkReferences": {}
}